{
  "contractName": "BanksyVoucherToken",
  "abi": [
    {
      "inputs": [],
      "stateMutability": "nonpayable",
      "type": "constructor"
    },
    {
      "anonymous": false,
      "inputs": [
        {
          "indexed": true,
          "internalType": "address",
          "name": "owner",
          "type": "address"
        },
        {
          "indexed": true,
          "internalType": "address",
          "name": "approved",
          "type": "address"
        },
        {
          "indexed": true,
          "internalType": "uint256",
          "name": "tokenId",
          "type": "uint256"
        }
      ],
      "name": "Approval",
      "type": "event"
    },
    {
      "anonymous": false,
      "inputs": [
        {
          "indexed": true,
          "internalType": "address",
          "name": "owner",
          "type": "address"
        },
        {
          "indexed": true,
          "internalType": "address",
          "name": "operator",
          "type": "address"
        },
        {
          "indexed": false,
          "internalType": "bool",
          "name": "approved",
          "type": "bool"
        }
      ],
      "name": "ApprovalForAll",
      "type": "event"
    },
    {
      "anonymous": false,
      "inputs": [
        {
          "indexed": true,
          "internalType": "address",
          "name": "previousOwner",
          "type": "address"
        },
        {
          "indexed": true,
          "internalType": "address",
          "name": "newOwner",
          "type": "address"
        }
      ],
      "name": "OwnershipTransferred",
      "type": "event"
    },
    {
      "anonymous": false,
      "inputs": [
        {
          "indexed": true,
          "internalType": "address",
          "name": "_from",
          "type": "address"
        },
        {
          "indexed": true,
          "internalType": "address",
          "name": "_to",
          "type": "address"
        },
        {
          "indexed": true,
          "internalType": "uint256",
          "name": "_tokenId",
          "type": "uint256"
        },
        {
          "components": [
            {
              "internalType": "uint256",
              "name": "startDate",
              "type": "uint256"
            },
            {
              "internalType": "uint256",
              "name": "endDate",
              "type": "uint256"
            },
            {
              "internalType": "address",
              "name": "tokenowner",
              "type": "address"
            },
            {
              "internalType": "address",
              "name": "artworkAddress",
              "type": "address"
            },
            {
              "internalType": "uint256",
              "name": "artworkId",
              "type": "uint256"
            },
            {
              "internalType": "uint256",
              "name": "usageFee",
              "type": "uint256"
            }
          ],
          "indexed": false,
          "internalType": "struct BanksyVoucherToken.Metadata",
          "name": "_metadata",
          "type": "tuple"
        }
      ],
      "name": "Purchase",
      "type": "event"
    },
    {
      "anonymous": false,
      "inputs": [
        {
          "indexed": true,
          "internalType": "address",
          "name": "from",
          "type": "address"
        },
        {
          "indexed": true,
          "internalType": "address",
          "name": "to",
          "type": "address"
        },
        {
          "indexed": true,
          "internalType": "uint256",
          "name": "tokenId",
          "type": "uint256"
        }
      ],
      "name": "Transfer",
      "type": "event"
    },
    {
      "inputs": [
        {
          "internalType": "address",
          "name": "to",
          "type": "address"
        },
        {
          "internalType": "uint256",
          "name": "tokenId",
          "type": "uint256"
        }
      ],
      "name": "approve",
      "outputs": [],
      "stateMutability": "nonpayable",
      "type": "function"
    },
    {
      "inputs": [
        {
          "internalType": "address",
          "name": "owner",
          "type": "address"
        }
      ],
      "name": "balanceOf",
      "outputs": [
        {
          "internalType": "uint256",
          "name": "",
          "type": "uint256"
        }
      ],
      "stateMutability": "view",
      "type": "function"
    },
    {
      "inputs": [
        {
          "internalType": "uint256",
          "name": "tokenId",
          "type": "uint256"
        }
      ],
      "name": "getApproved",
      "outputs": [
        {
          "internalType": "address",
          "name": "",
          "type": "address"
        }
      ],
      "stateMutability": "view",
      "type": "function"
    },
    {
      "inputs": [
        {
          "internalType": "address",
          "name": "owner",
          "type": "address"
        },
        {
          "internalType": "address",
          "name": "operator",
          "type": "address"
        }
      ],
      "name": "isApprovedForAll",
      "outputs": [
        {
          "internalType": "bool",
          "name": "",
          "type": "bool"
        }
      ],
      "stateMutability": "view",
      "type": "function"
    },
    {
      "inputs": [],
      "name": "name",
      "outputs": [
        {
          "internalType": "string",
          "name": "",
          "type": "string"
        }
      ],
      "stateMutability": "view",
      "type": "function"
    },
    {
      "inputs": [],
      "name": "owner",
      "outputs": [
        {
          "internalType": "address",
          "name": "",
          "type": "address"
        }
      ],
      "stateMutability": "view",
      "type": "function"
    },
    {
      "inputs": [
        {
          "internalType": "uint256",
          "name": "tokenId",
          "type": "uint256"
        }
      ],
      "name": "ownerOf",
      "outputs": [
        {
          "internalType": "address",
          "name": "",
          "type": "address"
        }
      ],
      "stateMutability": "view",
      "type": "function"
    },
    {
      "inputs": [],
      "name": "renounceOwnership",
      "outputs": [],
      "stateMutability": "nonpayable",
      "type": "function"
    },
    {
      "inputs": [
        {
          "internalType": "address",
          "name": "from",
          "type": "address"
        },
        {
          "internalType": "address",
          "name": "to",
          "type": "address"
        },
        {
          "internalType": "uint256",
          "name": "tokenId",
          "type": "uint256"
        }
      ],
      "name": "safeTransferFrom",
      "outputs": [],
      "stateMutability": "nonpayable",
      "type": "function"
    },
    {
      "inputs": [
        {
          "internalType": "address",
          "name": "from",
          "type": "address"
        },
        {
          "internalType": "address",
          "name": "to",
          "type": "address"
        },
        {
          "internalType": "uint256",
          "name": "tokenId",
          "type": "uint256"
        },
        {
          "internalType": "bytes",
          "name": "_data",
          "type": "bytes"
        }
      ],
      "name": "safeTransferFrom",
      "outputs": [],
      "stateMutability": "nonpayable",
      "type": "function"
    },
    {
      "inputs": [
        {
          "internalType": "address",
          "name": "operator",
          "type": "address"
        },
        {
          "internalType": "bool",
          "name": "approved",
          "type": "bool"
        }
      ],
      "name": "setApprovalForAll",
      "outputs": [],
      "stateMutability": "nonpayable",
      "type": "function"
    },
    {
      "inputs": [
        {
          "internalType": "bytes4",
          "name": "interfaceId",
          "type": "bytes4"
        }
      ],
      "name": "supportsInterface",
      "outputs": [
        {
          "internalType": "bool",
          "name": "",
          "type": "bool"
        }
      ],
      "stateMutability": "view",
      "type": "function"
    },
    {
      "inputs": [],
      "name": "symbol",
      "outputs": [
        {
          "internalType": "string",
          "name": "",
          "type": "string"
        }
      ],
      "stateMutability": "view",
      "type": "function"
    },
    {
      "inputs": [
        {
          "internalType": "uint256",
          "name": "tokenId",
          "type": "uint256"
        }
      ],
      "name": "tokenURI",
      "outputs": [
        {
          "internalType": "string",
          "name": "",
          "type": "string"
        }
      ],
      "stateMutability": "view",
      "type": "function"
    },
    {
      "inputs": [
        {
          "internalType": "address",
          "name": "from",
          "type": "address"
        },
        {
          "internalType": "address",
          "name": "to",
          "type": "address"
        },
        {
          "internalType": "uint256",
          "name": "tokenId",
          "type": "uint256"
        }
      ],
      "name": "transferFrom",
      "outputs": [],
      "stateMutability": "nonpayable",
      "type": "function"
    },
    {
      "inputs": [
        {
          "internalType": "address",
          "name": "newOwner",
          "type": "address"
        }
      ],
      "name": "transferOwnership",
      "outputs": [],
      "stateMutability": "nonpayable",
      "type": "function"
    },
    {
      "inputs": [
        {
          "internalType": "address",
          "name": "seller",
          "type": "address"
        },
        {
          "internalType": "address",
          "name": "buyer",
          "type": "address"
        },
        {
          "internalType": "uint256",
          "name": "melonTokenId",
          "type": "uint256"
        }
      ],
      "name": "purchase",
      "outputs": [],
      "stateMutability": "nonpayable",
      "type": "function"
    },
    {
      "inputs": [
        {
          "internalType": "address",
          "name": "_to",
          "type": "address"
        },
        {
          "internalType": "address",
          "name": "_artworkAddress",
          "type": "address"
        },
        {
          "internalType": "uint256",
          "name": "_artworkId",
          "type": "uint256"
        },
        {
          "internalType": "uint256",
          "name": "_startDate",
          "type": "uint256"
        },
        {
          "internalType": "uint256",
          "name": "_endDate",
          "type": "uint256"
        }
      ],
      "name": "mint",
      "outputs": [
        {
          "internalType": "uint256",
          "name": "",
          "type": "uint256"
        }
      ],
      "stateMutability": "nonpayable",
      "type": "function"
    },
    {
      "inputs": [
        {
          "internalType": "uint256",
          "name": "_tokenId",
          "type": "uint256"
        }
      ],
      "name": "getMetadata",
      "outputs": [
        {
          "components": [
            {
              "internalType": "uint256",
              "name": "startDate",
              "type": "uint256"
            },
            {
              "internalType": "uint256",
              "name": "endDate",
              "type": "uint256"
            },
            {
              "internalType": "address",
              "name": "tokenowner",
              "type": "address"
            },
            {
              "internalType": "address",
              "name": "artworkAddress",
              "type": "address"
            },
            {
              "internalType": "uint256",
              "name": "artworkId",
              "type": "uint256"
            },
            {
              "internalType": "uint256",
              "name": "usageFee",
              "type": "uint256"
            }
          ],
          "internalType": "struct BanksyVoucherToken.Metadata",
          "name": "metadata",
          "type": "tuple"
        }
      ],
      "stateMutability": "view",
      "type": "function"
    },
    {
      "inputs": [
        {
          "internalType": "uint256",
          "name": "_tokenId",
          "type": "uint256"
        }
      ],
      "name": "getTokenOwner",
      "outputs": [
        {
          "internalType": "address",
          "name": "artist",
          "type": "address"
        }
      ],
      "stateMutability": "view",
      "type": "function"
    }
  ],
  "bytecode": "0x60806040523480156200001157600080fd5b50604080518082018252601681527f41727420776f726b20566f756368657220546f6b656e00000000000000000000602080830191825283518085019094526007845266417274776f726b60c81b90840152815191929162000076916000916200010a565b5080516200008c9060019060208401906200010a565b505050620000a9620000a3620000b460201b60201c565b620000b8565b6005600955620001ed565b3390565b600780546001600160a01b038381166001600160a01b0319831681179093556040519116919082907f8be0079c531659141344cd1fd0a4f28419497f9722a3daafe3b4186f6b6457e090600090a35050565b8280546200011890620001b0565b90600052602060002090601f0160209004810192826200013c576000855562000187565b82601f106200015757805160ff191683800117855562000187565b8280016001018555821562000187579182015b82811115620001875782518255916020019190600101906200016a565b506200019592915062000199565b5090565b5b808211156200019557600081556001016200019a565b600281046001821680620001c557607f821691505b60208210811415620001e757634e487b7160e01b600052602260045260246000fd5b50919050565b611bd680620001fd6000396000f3fe608060405234801561001057600080fd5b50600436106100fc5760003560e01c806301ffc9a71461010157806306fdde031461012a578063081812fc1461013f578063095ea7b31461015f57806323b872dd1461017457806342842e0e146101875780636352211e1461019a57806364044156146101ad57806370a08231146101c0578063715018a6146101e05780638da5cb5b146101e857806395d89b41146101f05780639ceeaca7146101f8578063a22cb4651461020b578063a574cea41461021e578063a5cd761f1461023e578063b88d4fde14610251578063c87b56dd14610264578063e985e9c514610277578063f2fde38b1461028a575b600080fd5b61011461010f3660046113ca565b61029d565b60405161012191906114e2565b60405180910390f35b6101326102e5565b60405161012191906114ed565b61015261014d366004611402565b610377565b6040516101219190611491565b61017261016d3660046113a1565b6103c3565b005b610172610182366004611215565b61045b565b610172610195366004611215565b610493565b6101526101a8366004611402565b6104ae565b6101726101bb366004611215565b6104e3565b6101d36101ce3660046111c9565b610551565b6040516101219190611a46565b610172610595565b6101526105e0565b6101326105ef565b6101d361020636600461131b565b6105fe565b610172610219366004611367565b6107af565b61023161022c366004611402565b6107c5565b60405161012191906119ad565b61015261024c366004611402565b610834565b61017261025f366004611250565b610852565b610132610272366004611402565b610891565b6101146102853660046111e3565b6109b2565b6101726102983660046111c9565b6109e0565b60006001600160e01b031982166380ac58cd60e01b14806102ce57506001600160e01b03198216635b5e139f60e01b145b806102dd57506102dd82610a51565b90505b919050565b6060600080546102f490611abe565b80601f016020809104026020016040519081016040528092919081815260200182805461032090611abe565b801561036d5780601f106103425761010080835404028352916020019161036d565b820191906000526020600020905b81548152906001019060200180831161035057829003601f168201915b5050505050905090565b600061038282610a6a565b6103a75760405162461bcd60e51b815260040161039e90611802565b60405180910390fd5b506000908152600460205260409020546001600160a01b031690565b60006103ce826104ae565b9050806001600160a01b0316836001600160a01b031614156104025760405162461bcd60e51b815260040161039e9061191b565b806001600160a01b0316610414610a87565b6001600160a01b03161480610430575061043081610285610a87565b61044c5760405162461bcd60e51b815260040161039e90611691565b6104568383610a8b565b505050565b61046c610466610a87565b82610af9565b6104885760405162461bcd60e51b815260040161039e9061195c565b610456838383610b76565b61045683838360405180602001604052806000815250610852565b6000818152600260205260408120546001600160a01b0316806102dd5760405162461bcd60e51b815260040161039e90611733565b6104ee83838361045b565b80826001600160a01b0316846001600160a01b03167f15b14d304b9ae4c8690161027407d1481a3f879edcbc2008dd0c11476d24de63600a600086815260200190815260200160002060405161054491906119fd565b60405180910390a4505050565b60006001600160a01b0382166105795760405162461bcd60e51b815260040161039e906116e9565b506001600160a01b031660009081526003602052604090205490565b61059d610a87565b6001600160a01b03166105ae6105e0565b6001600160a01b0316146105d45760405162461bcd60e51b815260040161039e9061184e565b6105de6000610c91565b565b6007546001600160a01b031690565b6060600180546102f490611abe565b6000610608610a87565b6001600160a01b03166106196105e0565b6001600160a01b03161461063f5760405162461bcd60e51b815260040161039e9061184e565b600080866001600160a01b03168660405160240161065d9190611a46565b60408051601f198184030181529181526020820180516001600160e01b03166331a9108f60e11b179052516106929190611446565b600060405180830381855afa9150503d80600081146106cd576040519150601f19603f3d011682016040523d82523d6000602084013e6106d2565b606091505b5091509150816106e157600080fd5b60006106ec82610ce3565b90506106f86008610cea565b60006107046008610cf3565b90506107108a82610cf7565b61071861116a565b96875260208088019687526001600160a01b039283166040808a019182529a841660608a0190815260808a019a8b5260095460a08b019081526000858152600a9094529b909220985189559651600189015595516002880180549184166001600160a01b03199283161790559551600388018054919093169616959095179055505092516004830155925160059091015550919050565b6107c16107ba610a87565b8383610dc4565b5050565b6107cd61116a565b506000908152600a6020908152604091829020825160c0810184528154815260018201549281019290925260028101546001600160a01b0390811693830193909352600381015490921660608201526004820154608082015260059091015460a082015290565b6000908152600a60205260409020600201546001600160a01b031690565b61086361085d610a87565b83610af9565b61087f5760405162461bcd60e51b815260040161039e9061195c565b61088b84848484610e67565b50505050565b606061089c82610a6a565b6108b85760405162461bcd60e51b815260040161039e906117b1565b600082815260066020526040812080546108d190611abe565b80601f01602080910402602001604051908101604052809291908181526020018280546108fd90611abe565b801561094a5780601f1061091f5761010080835404028352916020019161094a565b820191906000526020600020905b81548152906001019060200180831161092d57829003601f168201915b50505050509050600061095b610e9a565b905080516000141561096f575090506102e0565b8151156109a1578082604051602001610989929190611462565b604051602081830303815290604052925050506102e0565b6109aa84610eac565b949350505050565b6001600160a01b03918216600090815260056020908152604080832093909416825291909152205460ff1690565b6109e8610a87565b6001600160a01b03166109f96105e0565b6001600160a01b031614610a1f5760405162461bcd60e51b815260040161039e9061184e565b6001600160a01b038116610a455760405162461bcd60e51b815260040161039e90611552565b610a4e81610c91565b50565b6001600160e01b031981166301ffc9a760e01b14919050565b6000908152600260205260409020546001600160a01b0316151590565b3390565b600081815260046020526040902080546001600160a01b0319166001600160a01b0384169081179091558190610ac0826104ae565b6001600160a01b03167f8c5be1e5ebec7d5bd14f71427d1e84f3dd0314c0f7b2291e5b200ac8c7c3b92560405160405180910390a45050565b6000610b0482610a6a565b610b205760405162461bcd60e51b815260040161039e90611645565b6000610b2b836104ae565b9050806001600160a01b0316846001600160a01b03161480610b665750836001600160a01b0316610b5b84610377565b6001600160a01b0316145b806109aa57506109aa81856109b2565b826001600160a01b0316610b89826104ae565b6001600160a01b031614610baf5760405162461bcd60e51b815260040161039e90611883565b6001600160a01b038216610bd55760405162461bcd60e51b815260040161039e906115ce565b610be0838383610456565b610beb600082610a8b565b6001600160a01b0383166000908152600360205260408120805460019290610c14908490611a7b565b90915550506001600160a01b0382166000908152600360205260408120805460019290610c42908490611a4f565b909155505060008181526002602052604080822080546001600160a01b0319166001600160a01b038681169182179092559151849391871691600080516020611b8183398151915291a4505050565b600780546001600160a01b038381166001600160a01b0319831681179093556040519116919082907f8be0079c531659141344cd1fd0a4f28419497f9722a3daafe3b4186f6b6457e090600090a35050565b6020015190565b80546001019055565b5490565b6001600160a01b038216610d1d5760405162461bcd60e51b815260040161039e9061177c565b610d2681610a6a565b15610d435760405162461bcd60e51b815260040161039e90611598565b610d4f60008383610456565b6001600160a01b0382166000908152600360205260408120805460019290610d78908490611a4f565b909155505060008181526002602052604080822080546001600160a01b0319166001600160a01b0386169081179091559051839290600080516020611b81833981519152908290a45050565b816001600160a01b0316836001600160a01b03161415610df65760405162461bcd60e51b815260040161039e90611612565b6001600160a01b0383811660008181526005602090815260408083209487168084529490915290819020805460ff1916851515179055517f17307eab39ab6107e8899845ad3d59bd9653f200f220920489ca2b5937696c3190610e5a9085906114e2565b60405180910390a3505050565b610e72848484610b76565b610e7e84848484610f2f565b61088b5760405162461bcd60e51b815260040161039e90611500565b60408051602081019091526000815290565b6060610eb782610a6a565b610ed35760405162461bcd60e51b815260040161039e906118cc565b6000610edd610e9a565b90506000815111610efd5760405180602001604052806000815250610f28565b80610f078461104a565b604051602001610f18929190611462565b6040516020818303038152906040525b9392505050565b6000610f43846001600160a01b0316611164565b1561103f57836001600160a01b031663150b7a02610f5f610a87565b8786866040518563ffffffff1660e01b8152600401610f8194939291906114a5565b602060405180830381600087803b158015610f9b57600080fd5b505af1925050508015610fcb575060408051601f3d908101601f19168201909252610fc8918101906113e6565b60015b611025573d808015610ff9576040519150601f19603f3d011682016040523d82523d6000602084013e610ffe565b606091505b50805161101d5760405162461bcd60e51b815260040161039e90611500565b805181602001fd5b6001600160e01b031916630a85bd0160e11b1490506109aa565b506001949350505050565b60608161106f57506040805180820190915260018152600360fc1b60208201526102e0565b8160005b8115611099578061108381611af9565b91506110929050600a83611a67565b9150611073565b6000816001600160401b038111156110c157634e487b7160e01b600052604160045260246000fd5b6040519080825280601f01601f1916602001820160405280156110eb576020820181803683370190505b5090505b84156109aa57611100600183611a7b565b915061110d600a86611b14565b611118906030611a4f565b60f81b81838151811061113b57634e487b7160e01b600052603260045260246000fd5b60200101906001600160f81b031916908160001a90535061115d600a86611a67565b94506110ef565b3b151590565b6040518060c00160405280600081526020016000815260200160006001600160a01b0316815260200160006001600160a01b0316815260200160008152602001600081525090565b80356001600160a01b03811681146102e057600080fd5b6000602082840312156111da578081fd5b610f28826111b2565b600080604083850312156111f5578081fd5b6111fe836111b2565b915061120c602084016111b2565b90509250929050565b600080600060608486031215611229578081fd5b611232846111b2565b9250611240602085016111b2565b9150604084013590509250925092565b60008060008060808587031215611265578081fd5b61126e856111b2565b9350602061127d8187016111b2565b93506040860135925060608601356001600160401b038082111561129f578384fd5b818801915088601f8301126112b2578384fd5b8135818111156112c4576112c4611b54565b604051601f8201601f19168101850183811182821017156112e7576112e7611b54565b60405281815283820185018b10156112fd578586fd5b81858501868301379081019093019390935250939692955090935050565b600080600080600060a08688031215611332578081fd5b61133b866111b2565b9450611349602087016111b2565b94979496505050506040830135926060810135926080909101359150565b60008060408385031215611379578182fd5b611382836111b2565b915060208301358015158114611396578182fd5b809150509250929050565b600080604083850312156113b3578182fd5b6113bc836111b2565b946020939093013593505050565b6000602082840312156113db578081fd5b8135610f2881611b6a565b6000602082840312156113f7578081fd5b8151610f2881611b6a565b600060208284031215611413578081fd5b5035919050565b60008151808452611432816020860160208601611a92565b601f01601f19169290920160200192915050565b60008251611458818460208701611a92565b9190910192915050565b60008351611474818460208801611a92565b835190830190611488818360208801611a92565b01949350505050565b6001600160a01b0391909116815260200190565b6001600160a01b03858116825284166020820152604081018390526080606082018190526000906114d89083018461141a565b9695505050505050565b901515815260200190565b600060208252610f28602083018461141a565b60208082526032908201527f4552433732313a207472616e7366657220746f206e6f6e20455243373231526560408201527131b2b4bb32b91034b6b83632b6b2b73a32b960711b606082015260800190565b60208082526026908201527f4f776e61626c653a206e6577206f776e657220697320746865207a65726f206160408201526564647265737360d01b606082015260800190565b6020808252601c908201527b115490cdcc8c4e881d1bdad95b88185b1c9958591e481b5a5b9d195960221b604082015260600190565b60208082526024908201527f4552433732313a207472616e7366657220746f20746865207a65726f206164646040820152637265737360e01b606082015260800190565b60208082526019908201527822a9219b99189d1030b8383937bb32903a379031b0b63632b960391b604082015260600190565b6020808252602c908201527f4552433732313a206f70657261746f7220717565727920666f72206e6f6e657860408201526b34b9ba32b73a103a37b5b2b760a11b606082015260800190565b60208082526038908201527f4552433732313a20617070726f76652063616c6c6572206973206e6f74206f776040820152771b995c881b9bdc88185c1c1c9bdd995908199bdc88185b1b60421b606082015260800190565b6020808252602a908201527f4552433732313a2062616c616e636520717565727920666f7220746865207a65604082015269726f206164647265737360b01b606082015260800190565b60208082526029908201527f4552433732313a206f776e657220717565727920666f72206e6f6e657869737460408201526832b73a103a37b5b2b760b91b606082015260800190565b6020808252818101527f4552433732313a206d696e7420746f20746865207a65726f2061646472657373604082015260600190565b60208082526031908201527f45524337323155524953746f726167653a2055524920717565727920666f72206040820152703737b732bc34b9ba32b73a103a37b5b2b760791b606082015260800190565b6020808252602c908201527f4552433732313a20617070726f76656420717565727920666f72206e6f6e657860408201526b34b9ba32b73a103a37b5b2b760a11b606082015260800190565b6020808252818101527f4f776e61626c653a2063616c6c6572206973206e6f7420746865206f776e6572604082015260600190565b60208082526029908201527f4552433732313a207472616e73666572206f6620746f6b656e2074686174206960408201526839903737ba1037bbb760b91b606082015260800190565b6020808252602f908201527f4552433732314d657461646174613a2055524920717565727920666f72206e6f60408201526e3732bc34b9ba32b73a103a37b5b2b760891b606082015260800190565b60208082526021908201527f4552433732313a20617070726f76616c20746f2063757272656e74206f776e656040820152603960f91b606082015260800190565b60208082526031908201527f4552433732313a207472616e736665722063616c6c6572206973206e6f74206f6040820152701ddb995c881b9bdc88185c1c1c9bdd9959607a1b606082015260800190565b81518152602080830151908201526040808301516001600160a01b0390811691830191909152606080840151909116908201526080808301519082015260a0918201519181019190915260c00190565b815481526001820154602082015260028201546001600160a01b03908116604083015260038301541660608201526004820154608082015260059091015460a082015260c00190565b90815260200190565b60008219821115611a6257611a62611b28565b500190565b600082611a7657611a76611b3e565b500490565b600082821015611a8d57611a8d611b28565b500390565b60005b83811015611aad578181015183820152602001611a95565b8381111561088b5750506000910152565b600281046001821680611ad257607f821691505b60208210811415611af357634e487b7160e01b600052602260045260246000fd5b50919050565b6000600019821415611b0d57611b0d611b28565b5060010190565b600082611b2357611b23611b3e565b500690565b634e487b7160e01b600052601160045260246000fd5b634e487b7160e01b600052601260045260246000fd5b634e487b7160e01b600052604160045260246000fd5b6001600160e01b031981168114610a4e57600080fdfeddf252ad1be2c89b69c2b068fc378daa952ba7f163c4a11628f55a4df523b3efa26469706673582212206e042e05fe53a454f1df243b91bccb6e65d25a2895c5c7bf34e2741699b510e764736f6c63430008000033",
  "immutableReferences": {},
  "source": "pragma solidity >=0.5.16;\n\nimport \"openzeppelin-solidity/contracts/token/ERC721/extensions/ERC721URIStorage.sol\";\nimport \"openzeppelin-solidity/contracts/token/ERC721/extensions/IERC721Metadata.sol\";\nimport \"openzeppelin-solidity/contracts/utils/Counters.sol\";\nimport \"openzeppelin-solidity/contracts/access/Ownable.sol\";\n\ncontract BanksyVoucherToken is ERC721URIStorage, Ownable {\n    using Counters for Counters.Counter;  \n    Counters.Counter private _tokenIds;\n    uint256 private _usageFee;  // \n\n    mapping(uint256 => Metadata) private metadataMap;\n\n    struct Metadata {\n        uint256 startDate;\n        uint256 endDate;\n        address tokenowner;\n        address artworkAddress;\n        uint256 artworkId;\n        uint256 usageFee;\n    }\n\n    constructor() ERC721(\"Art work Voucher Token\", \"Artwork\") {\n        _usageFee = 5;\n    }\n\n    event Purchase(\n        address indexed _from,\n        address indexed _to,\n        uint256 indexed _tokenId,\n        Metadata _metadata\n    );\n\n    /*\n     * Swap.sol  purchase  ERC721   \n     *   event  (emit)\n     */\n    function purchase(\n        address seller, // \n        address buyer,\n        uint256 melonTokenId\n    ) public {\n        // ERC721  (melon -> buyer)\n        transferFrom(seller, buyer, melonTokenId);\n        emit Purchase(seller, buyer, melonTokenId, metadataMap[melonTokenId]);\n    }\n\n    function mint(\n        address _to,\n        address _artworkAddress,\n        uint256 _artworkId,\n        uint256 _startDate,\n        uint256 _endDate\n    ) public onlyOwner returns (uint256) {\n        //     \n        (bool success, bytes memory data) = address(_artworkAddress)\n            .staticcall(\n                abi.encodeWithSignature(\"ownerOf(uint256)\", _artworkId)\n            );\n        if (!success) {\n            revert();\n        }\n        address tokenowner = bytesToAddress(data);\n\n        // mint\n        _tokenIds.increment();\n        uint256 melonTokenId = _tokenIds.current();\n        _mint(_to, melonTokenId);\n\n        // token metadata\n        Metadata memory metadata;\n        metadata.startDate = _startDate;\n        metadata.endDate = _endDate;\n        metadata.tokenowner = tokenowner;\n        metadata.artworkAddress = _artworkAddress;\n        metadata.artworkId = _artworkId;\n        metadata.usageFee = _usageFee;\n        metadataMap[melonTokenId] = metadata;\n\n        return melonTokenId;\n    }\n\n    function getMetadata(uint256 _tokenId)\n        external\n        view\n        returns (Metadata memory metadata)\n    {\n        return metadataMap[_tokenId];\n    }\n\n    function getTokenOwner(uint256 _tokenId)\n        external\n        view\n        returns (address artist)\n    {\n        return metadataMap[_tokenId].tokenowner;\n    }\n\n    function bytesToAddress(bytes memory bys)\n        private\n        pure\n        returns (address addr)\n    {\n        assembly {\n            addr := mload(add(bys, 32))\n        }\n    }\n}\n",
  "sourcePath": "/Users/joon/Workspace/git/nft-marketplace/smartcontract/contracts/VoucherToken.sol",
  "compiler": {
    "name": "solc",
    "version": "0.8.0+commit.c7dfd78e.Emscripten.clang"
  },
  "schemaVersion": "3.4.4",
  "updatedAt": "2022-03-21T05:30:08.970Z",
  "devdoc": {
    "kind": "dev",
    "methods": {
      "approve(address,uint256)": {
        "details": "See {IERC721-approve}."
      },
      "balanceOf(address)": {
        "details": "See {IERC721-balanceOf}."
      },
      "getApproved(uint256)": {
        "details": "See {IERC721-getApproved}."
      },
      "isApprovedForAll(address,address)": {
        "details": "See {IERC721-isApprovedForAll}."
      },
      "name()": {
        "details": "See {IERC721Metadata-name}."
      },
      "owner()": {
        "details": "Returns the address of the current owner."
      },
      "ownerOf(uint256)": {
        "details": "See {IERC721-ownerOf}."
      },
      "renounceOwnership()": {
        "details": "Leaves the contract without owner. It will not be possible to call `onlyOwner` functions anymore. Can only be called by the current owner. NOTE: Renouncing ownership will leave the contract without an owner, thereby removing any functionality that is only available to the owner."
      },
      "safeTransferFrom(address,address,uint256)": {
        "details": "See {IERC721-safeTransferFrom}."
      },
      "safeTransferFrom(address,address,uint256,bytes)": {
        "details": "See {IERC721-safeTransferFrom}."
      },
      "setApprovalForAll(address,bool)": {
        "details": "See {IERC721-setApprovalForAll}."
      },
      "supportsInterface(bytes4)": {
        "details": "See {IERC165-supportsInterface}."
      },
      "symbol()": {
        "details": "See {IERC721Metadata-symbol}."
      },
      "tokenURI(uint256)": {
        "details": "See {IERC721Metadata-tokenURI}."
      },
      "transferFrom(address,address,uint256)": {
        "details": "See {IERC721-transferFrom}."
      },
      "transferOwnership(address)": {
        "details": "Transfers ownership of the contract to a new account (`newOwner`). Can only be called by the current owner."
      }
    },
    "version": 1
  },
  "userdoc": {
    "kind": "user",
    "methods": {},
    "version": 1
  }
}