{
  "contractName": "BanksyToken",
  "abi": [
    {
      "inputs": [],
      "stateMutability": "nonpayable",
      "type": "constructor"
    },
    {
      "anonymous": false,
      "inputs": [
        {
          "indexed": true,
          "internalType": "address",
          "name": "owner",
          "type": "address"
        },
        {
          "indexed": true,
          "internalType": "address",
          "name": "approved",
          "type": "address"
        },
        {
          "indexed": true,
          "internalType": "uint256",
          "name": "tokenId",
          "type": "uint256"
        }
      ],
      "name": "Approval",
      "type": "event"
    },
    {
      "anonymous": false,
      "inputs": [
        {
          "indexed": true,
          "internalType": "address",
          "name": "owner",
          "type": "address"
        },
        {
          "indexed": true,
          "internalType": "address",
          "name": "operator",
          "type": "address"
        },
        {
          "indexed": false,
          "internalType": "bool",
          "name": "approved",
          "type": "bool"
        }
      ],
      "name": "ApprovalForAll",
      "type": "event"
    },
    {
      "anonymous": false,
      "inputs": [
        {
          "indexed": true,
          "internalType": "address",
          "name": "previousOwner",
          "type": "address"
        },
        {
          "indexed": true,
          "internalType": "address",
          "name": "newOwner",
          "type": "address"
        }
      ],
      "name": "OwnershipTransferred",
      "type": "event"
    },
    {
      "anonymous": false,
      "inputs": [
        {
          "indexed": true,
          "internalType": "address",
          "name": "from",
          "type": "address"
        },
        {
          "indexed": true,
          "internalType": "address",
          "name": "to",
          "type": "address"
        },
        {
          "indexed": true,
          "internalType": "uint256",
          "name": "tokenId",
          "type": "uint256"
        }
      ],
      "name": "Transfer",
      "type": "event"
    },
    {
      "inputs": [
        {
          "internalType": "address",
          "name": "to",
          "type": "address"
        },
        {
          "internalType": "uint256",
          "name": "tokenId",
          "type": "uint256"
        }
      ],
      "name": "approve",
      "outputs": [],
      "stateMutability": "nonpayable",
      "type": "function"
    },
    {
      "inputs": [
        {
          "internalType": "address",
          "name": "owner",
          "type": "address"
        }
      ],
      "name": "balanceOf",
      "outputs": [
        {
          "internalType": "uint256",
          "name": "",
          "type": "uint256"
        }
      ],
      "stateMutability": "view",
      "type": "function",
      "constant": true
    },
    {
      "inputs": [
        {
          "internalType": "uint256",
          "name": "tokenId",
          "type": "uint256"
        }
      ],
      "name": "getApproved",
      "outputs": [
        {
          "internalType": "address",
          "name": "",
          "type": "address"
        }
      ],
      "stateMutability": "view",
      "type": "function",
      "constant": true
    },
    {
      "inputs": [
        {
          "internalType": "address",
          "name": "owner",
          "type": "address"
        },
        {
          "internalType": "address",
          "name": "operator",
          "type": "address"
        }
      ],
      "name": "isApprovedForAll",
      "outputs": [
        {
          "internalType": "bool",
          "name": "",
          "type": "bool"
        }
      ],
      "stateMutability": "view",
      "type": "function",
      "constant": true
    },
    {
      "inputs": [],
      "name": "name",
      "outputs": [
        {
          "internalType": "string",
          "name": "",
          "type": "string"
        }
      ],
      "stateMutability": "view",
      "type": "function",
      "constant": true
    },
    {
      "inputs": [],
      "name": "owner",
      "outputs": [
        {
          "internalType": "address",
          "name": "",
          "type": "address"
        }
      ],
      "stateMutability": "view",
      "type": "function",
      "constant": true
    },
    {
      "inputs": [
        {
          "internalType": "uint256",
          "name": "tokenId",
          "type": "uint256"
        }
      ],
      "name": "ownerOf",
      "outputs": [
        {
          "internalType": "address",
          "name": "",
          "type": "address"
        }
      ],
      "stateMutability": "view",
      "type": "function",
      "constant": true
    },
    {
      "inputs": [],
      "name": "renounceOwnership",
      "outputs": [],
      "stateMutability": "nonpayable",
      "type": "function"
    },
    {
      "inputs": [
        {
          "internalType": "address",
          "name": "from",
          "type": "address"
        },
        {
          "internalType": "address",
          "name": "to",
          "type": "address"
        },
        {
          "internalType": "uint256",
          "name": "tokenId",
          "type": "uint256"
        }
      ],
      "name": "safeTransferFrom",
      "outputs": [],
      "stateMutability": "nonpayable",
      "type": "function"
    },
    {
      "inputs": [
        {
          "internalType": "address",
          "name": "from",
          "type": "address"
        },
        {
          "internalType": "address",
          "name": "to",
          "type": "address"
        },
        {
          "internalType": "uint256",
          "name": "tokenId",
          "type": "uint256"
        },
        {
          "internalType": "bytes",
          "name": "_data",
          "type": "bytes"
        }
      ],
      "name": "safeTransferFrom",
      "outputs": [],
      "stateMutability": "nonpayable",
      "type": "function"
    },
    {
      "inputs": [
        {
          "internalType": "address",
          "name": "operator",
          "type": "address"
        },
        {
          "internalType": "bool",
          "name": "approved",
          "type": "bool"
        }
      ],
      "name": "setApprovalForAll",
      "outputs": [],
      "stateMutability": "nonpayable",
      "type": "function"
    },
    {
      "inputs": [
        {
          "internalType": "bytes4",
          "name": "interfaceId",
          "type": "bytes4"
        }
      ],
      "name": "supportsInterface",
      "outputs": [
        {
          "internalType": "bool",
          "name": "",
          "type": "bool"
        }
      ],
      "stateMutability": "view",
      "type": "function",
      "constant": true
    },
    {
      "inputs": [],
      "name": "symbol",
      "outputs": [
        {
          "internalType": "string",
          "name": "",
          "type": "string"
        }
      ],
      "stateMutability": "view",
      "type": "function",
      "constant": true
    },
    {
      "inputs": [
        {
          "internalType": "uint256",
          "name": "tokenId",
          "type": "uint256"
        }
      ],
      "name": "tokenURI",
      "outputs": [
        {
          "internalType": "string",
          "name": "",
          "type": "string"
        }
      ],
      "stateMutability": "view",
      "type": "function",
      "constant": true
    },
    {
      "inputs": [
        {
          "internalType": "address",
          "name": "from",
          "type": "address"
        },
        {
          "internalType": "address",
          "name": "to",
          "type": "address"
        },
        {
          "internalType": "uint256",
          "name": "tokenId",
          "type": "uint256"
        }
      ],
      "name": "transferFrom",
      "outputs": [],
      "stateMutability": "nonpayable",
      "type": "function"
    },
    {
      "inputs": [
        {
          "internalType": "address",
          "name": "newOwner",
          "type": "address"
        }
      ],
      "name": "transferOwnership",
      "outputs": [],
      "stateMutability": "nonpayable",
      "type": "function"
    },
    {
      "inputs": [],
      "name": "totalSupply",
      "outputs": [
        {
          "internalType": "uint256",
          "name": "",
          "type": "uint256"
        }
      ],
      "stateMutability": "view",
      "type": "function",
      "constant": true
    },
    {
      "inputs": [
        {
          "internalType": "string",
          "name": "tokenURI",
          "type": "string"
        }
      ],
      "name": "mint",
      "outputs": [
        {
          "internalType": "uint256",
          "name": "",
          "type": "uint256"
        }
      ],
      "stateMutability": "nonpayable",
      "type": "function"
    }
  ],
  "bytecode": "0x60806040523480156200001157600080fd5b50604080518082018252601881527f42616e6b73792773204669727374204e465420546f6b656e000000000000000060208083019182528351808501909452600384526213919560ea1b908401528151919291620000729160009162000101565b5080516200008890600190602084019062000101565b505050620000a56200009f620000ab60201b60201c565b620000af565b620001e4565b3390565b600780546001600160a01b038381166001600160a01b0319831681179093556040519116919082907f8be0079c531659141344cd1fd0a4f28419497f9722a3daafe3b4186f6b6457e090600090a35050565b8280546200010f90620001a7565b90600052602060002090601f0160209004810192826200013357600085556200017e565b82601f106200014e57805160ff19168380011785556200017e565b828001600101855582156200017e579182015b828111156200017e57825182559160200191906001019062000161565b506200018c92915062000190565b5090565b5b808211156200018c576000815560010162000191565b600281046001821680620001bc57607f821691505b60208210811415620001de57634e487b7160e01b600052602260045260246000fd5b50919050565b61195180620001f46000396000f3fe608060405234801561001057600080fd5b50600436106100e65760003560e01c806301ffc9a7146100eb57806306fdde0314610114578063081812fc14610129578063095ea7b31461014957806318160ddd1461015e57806323b872dd1461017357806342842e0e146101865780636352211e1461019957806370a08231146101ac578063715018a6146101bf5780638da5cb5b146101c757806395d89b41146101cf578063a22cb465146101d7578063b88d4fde146101ea578063c87b56dd146101fd578063d85d3d2714610210578063e985e9c514610223578063f2fde38b14610236575b600080fd5b6100fe6100f9366004611167565b610249565b60405161010b91906112a8565b60405180910390f35b61011c610291565b60405161010b91906112b3565b61013c6101373660046111e4565b610323565b60405161010b9190611257565b61015c61015736600461113e565b61036f565b005b610166610407565b60405161010b91906117c1565b61015c610181366004611051565b610418565b61015c610194366004611051565b610450565b61013c6101a73660046111e4565b61046b565b6101666101ba366004611005565b6104a0565b61015c6104e4565b61013c61052f565b61011c61053e565b61015c6101e5366004611104565b61054d565b61015c6101f836600461108c565b610563565b61011c61020b3660046111e4565b6105a2565b61016661021e36600461119f565b6106c3565b6100fe61023136600461101f565b6106f1565b61015c610244366004611005565b61071f565b60006001600160e01b031982166380ac58cd60e01b148061027a57506001600160e01b03198216635b5e139f60e01b145b80610289575061028982610790565b90505b919050565b6060600080546102a090611839565b80601f01602080910402602001604051908101604052809291908181526020018280546102cc90611839565b80156103195780601f106102ee57610100808354040283529160200191610319565b820191906000526020600020905b8154815290600101906020018083116102fc57829003601f168201915b5050505050905090565b600061032e826107a9565b6103535760405162461bcd60e51b815260040161034a90611616565b60405180910390fd5b506000908152600460205260409020546001600160a01b031690565b600061037a8261046b565b9050806001600160a01b0316836001600160a01b031614156103ae5760405162461bcd60e51b815260040161034a9061172f565b806001600160a01b03166103c06107c6565b6001600160a01b031614806103dc57506103dc816102316107c6565b6103f85760405162461bcd60e51b815260040161034a90611457565b61040283836107ca565b505050565b60006104136008610838565b905090565b6104296104236107c6565b8261083c565b6104455760405162461bcd60e51b815260040161034a90611770565b6104028383836108b9565b61040283838360405180602001604052806000815250610563565b6000818152600260205260408120546001600160a01b0316806102895760405162461bcd60e51b815260040161034a906114f9565b60006001600160a01b0382166104c85760405162461bcd60e51b815260040161034a906114af565b506001600160a01b031660009081526003602052604090205490565b6104ec6107c6565b6001600160a01b03166104fd61052f565b6001600160a01b0316146105235760405162461bcd60e51b815260040161034a90611662565b61052d60006109d4565b565b6007546001600160a01b031690565b6060600180546102a090611839565b61055f6105586107c6565b8383610a26565b5050565b61057461056e6107c6565b8361083c565b6105905760405162461bcd60e51b815260040161034a90611770565b61059c84848484610ac9565b50505050565b60606105ad826107a9565b6105c95760405162461bcd60e51b815260040161034a906115c5565b600082815260066020526040812080546105e290611839565b80601f016020809104026020016040519081016040528092919081815260200182805461060e90611839565b801561065b5780601f106106305761010080835404028352916020019161065b565b820191906000526020600020905b81548152906001019060200180831161063e57829003601f168201915b50505050509050600061066c610afc565b90508051600014156106805750905061028c565b8151156106b257808260405160200161069a929190611228565b6040516020818303038152906040529250505061028c565b6106bb84610b0e565b949350505050565b60006106cf6008610b91565b60006106db6008610838565b90506106e73382610b9a565b6102898184610c67565b6001600160a01b03918216600090815260056020908152604080832093909416825291909152205460ff1690565b6107276107c6565b6001600160a01b031661073861052f565b6001600160a01b03161461075e5760405162461bcd60e51b815260040161034a90611662565b6001600160a01b0381166107845760405162461bcd60e51b815260040161034a90611318565b61078d816109d4565b50565b6001600160e01b031981166301ffc9a760e01b14919050565b6000908152600260205260409020546001600160a01b0316151590565b3390565b600081815260046020526040902080546001600160a01b0319166001600160a01b03841690811790915581906107ff8261046b565b6001600160a01b03167f8c5be1e5ebec7d5bd14f71427d1e84f3dd0314c0f7b2291e5b200ac8c7c3b92560405160405180910390a45050565b5490565b6000610847826107a9565b6108635760405162461bcd60e51b815260040161034a9061140b565b600061086e8361046b565b9050806001600160a01b0316846001600160a01b031614806108a95750836001600160a01b031661089e84610323565b6001600160a01b0316145b806106bb57506106bb81856106f1565b826001600160a01b03166108cc8261046b565b6001600160a01b0316146108f25760405162461bcd60e51b815260040161034a90611697565b6001600160a01b0382166109185760405162461bcd60e51b815260040161034a90611394565b610923838383610402565b61092e6000826107ca565b6001600160a01b03831660009081526003602052604081208054600192906109579084906117f6565b90915550506001600160a01b03821660009081526003602052604081208054600192906109859084906117ca565b909155505060008181526002602052604080822080546001600160a01b0319166001600160a01b0386811691821790925591518493918716916000805160206118fc83398151915291a4505050565b600780546001600160a01b038381166001600160a01b0319831681179093556040519116919082907f8be0079c531659141344cd1fd0a4f28419497f9722a3daafe3b4186f6b6457e090600090a35050565b816001600160a01b0316836001600160a01b03161415610a585760405162461bcd60e51b815260040161034a906113d8565b6001600160a01b0383811660008181526005602090815260408083209487168084529490915290819020805460ff1916851515179055517f17307eab39ab6107e8899845ad3d59bd9653f200f220920489ca2b5937696c3190610abc9085906112a8565b60405180910390a3505050565b610ad48484846108b9565b610ae084848484610cab565b61059c5760405162461bcd60e51b815260040161034a906112c6565b60408051602081019091526000815290565b6060610b19826107a9565b610b355760405162461bcd60e51b815260040161034a906116e0565b6000610b3f610afc565b90506000815111610b5f5760405180602001604052806000815250610b8a565b80610b6984610dc6565b604051602001610b7a929190611228565b6040516020818303038152906040525b9392505050565b80546001019055565b6001600160a01b038216610bc05760405162461bcd60e51b815260040161034a90611590565b610bc9816107a9565b15610be65760405162461bcd60e51b815260040161034a9061135e565b610bf260008383610402565b6001600160a01b0382166000908152600360205260408120805460019290610c1b9084906117ca565b909155505060008181526002602052604080822080546001600160a01b0319166001600160a01b03861690811790915590518392906000805160206118fc833981519152908290a45050565b610c70826107a9565b610c8c5760405162461bcd60e51b815260040161034a90611542565b6000828152600660209081526040909120825161040292840190610ee6565b6000610cbf846001600160a01b0316610ee0565b15610dbb57836001600160a01b031663150b7a02610cdb6107c6565b8786866040518563ffffffff1660e01b8152600401610cfd949392919061126b565b602060405180830381600087803b158015610d1757600080fd5b505af1925050508015610d47575060408051601f3d908101601f19168201909252610d4491810190611183565b60015b610da1573d808015610d75576040519150601f19603f3d011682016040523d82523d6000602084013e610d7a565b606091505b508051610d995760405162461bcd60e51b815260040161034a906112c6565b805181602001fd5b6001600160e01b031916630a85bd0160e11b1490506106bb565b506001949350505050565b606081610deb57506040805180820190915260018152600360fc1b602082015261028c565b8160005b8115610e155780610dff81611874565b9150610e0e9050600a836117e2565b9150610def565b6000816001600160401b03811115610e3d57634e487b7160e01b600052604160045260246000fd5b6040519080825280601f01601f191660200182016040528015610e67576020820181803683370190505b5090505b84156106bb57610e7c6001836117f6565b9150610e89600a8661188f565b610e949060306117ca565b60f81b818381518110610eb757634e487b7160e01b600052603260045260246000fd5b60200101906001600160f81b031916908160001a905350610ed9600a866117e2565b9450610e6b565b3b151590565b828054610ef290611839565b90600052602060002090601f016020900481019282610f145760008555610f5a565b82601f10610f2d57805160ff1916838001178555610f5a565b82800160010185558215610f5a579182015b82811115610f5a578251825591602001919060010190610f3f565b50610f66929150610f6a565b5090565b5b80821115610f665760008155600101610f6b565b60006001600160401b0380841115610f9957610f996118cf565b604051601f8501601f191681016020018281118282101715610fbd57610fbd6118cf565b604052848152915081838501861015610fd557600080fd5b8484602083013760006020868301015250509392505050565b80356001600160a01b038116811461028c57600080fd5b600060208284031215611016578081fd5b610b8a82610fee565b60008060408385031215611031578081fd5b61103a83610fee565b915061104860208401610fee565b90509250929050565b600080600060608486031215611065578081fd5b61106e84610fee565b925061107c60208501610fee565b9150604084013590509250925092565b600080600080608085870312156110a1578081fd5b6110aa85610fee565b93506110b860208601610fee565b92506040850135915060608501356001600160401b038111156110d9578182fd5b8501601f810187136110e9578182fd5b6110f887823560208401610f7f565b91505092959194509250565b60008060408385031215611116578182fd5b61111f83610fee565b915060208301358015158114611133578182fd5b809150509250929050565b60008060408385031215611150578182fd5b61115983610fee565b946020939093013593505050565b600060208284031215611178578081fd5b8135610b8a816118e5565b600060208284031215611194578081fd5b8151610b8a816118e5565b6000602082840312156111b0578081fd5b81356001600160401b038111156111c5578182fd5b8201601f810184136111d5578182fd5b6106bb84823560208401610f7f565b6000602082840312156111f5578081fd5b5035919050565b6000815180845261121481602086016020860161180d565b601f01601f19169290920160200192915050565b6000835161123a81846020880161180d565b83519083019061124e81836020880161180d565b01949350505050565b6001600160a01b0391909116815260200190565b6001600160a01b038581168252841660208201526040810183905260806060820181905260009061129e908301846111fc565b9695505050505050565b901515815260200190565b600060208252610b8a60208301846111fc565b60208082526032908201527f4552433732313a207472616e7366657220746f206e6f6e20455243373231526560408201527131b2b4bb32b91034b6b83632b6b2b73a32b960711b606082015260800190565b60208082526026908201527f4f776e61626c653a206e6577206f776e657220697320746865207a65726f206160408201526564647265737360d01b606082015260800190565b6020808252601c908201527b115490cdcc8c4e881d1bdad95b88185b1c9958591e481b5a5b9d195960221b604082015260600190565b60208082526024908201527f4552433732313a207472616e7366657220746f20746865207a65726f206164646040820152637265737360e01b606082015260800190565b60208082526019908201527822a9219b99189d1030b8383937bb32903a379031b0b63632b960391b604082015260600190565b6020808252602c908201527f4552433732313a206f70657261746f7220717565727920666f72206e6f6e657860408201526b34b9ba32b73a103a37b5b2b760a11b606082015260800190565b60208082526038908201527f4552433732313a20617070726f76652063616c6c6572206973206e6f74206f776040820152771b995c881b9bdc88185c1c1c9bdd995908199bdc88185b1b60421b606082015260800190565b6020808252602a908201527f4552433732313a2062616c616e636520717565727920666f7220746865207a65604082015269726f206164647265737360b01b606082015260800190565b60208082526029908201527f4552433732313a206f776e657220717565727920666f72206e6f6e657869737460408201526832b73a103a37b5b2b760b91b606082015260800190565b6020808252602e908201527f45524337323155524953746f726167653a2055524920736574206f66206e6f6e60408201526d32bc34b9ba32b73a103a37b5b2b760911b606082015260800190565b6020808252818101527f4552433732313a206d696e7420746f20746865207a65726f2061646472657373604082015260600190565b60208082526031908201527f45524337323155524953746f726167653a2055524920717565727920666f72206040820152703737b732bc34b9ba32b73a103a37b5b2b760791b606082015260800190565b6020808252602c908201527f4552433732313a20617070726f76656420717565727920666f72206e6f6e657860408201526b34b9ba32b73a103a37b5b2b760a11b606082015260800190565b6020808252818101527f4f776e61626c653a2063616c6c6572206973206e6f7420746865206f776e6572604082015260600190565b60208082526029908201527f4552433732313a207472616e73666572206f6620746f6b656e2074686174206960408201526839903737ba1037bbb760b91b606082015260800190565b6020808252602f908201527f4552433732314d657461646174613a2055524920717565727920666f72206e6f60408201526e3732bc34b9ba32b73a103a37b5b2b760891b606082015260800190565b60208082526021908201527f4552433732313a20617070726f76616c20746f2063757272656e74206f776e656040820152603960f91b606082015260800190565b60208082526031908201527f4552433732313a207472616e736665722063616c6c6572206973206e6f74206f6040820152701ddb995c881b9bdc88185c1c1c9bdd9959607a1b606082015260800190565b90815260200190565b600082198211156117dd576117dd6118a3565b500190565b6000826117f1576117f16118b9565b500490565b600082821015611808576118086118a3565b500390565b60005b83811015611828578181015183820152602001611810565b8381111561059c5750506000910152565b60028104600182168061184d57607f821691505b6020821081141561186e57634e487b7160e01b600052602260045260246000fd5b50919050565b6000600019821415611888576118886118a3565b5060010190565b60008261189e5761189e6118b9565b500690565b634e487b7160e01b600052601160045260246000fd5b634e487b7160e01b600052601260045260246000fd5b634e487b7160e01b600052604160045260246000fd5b6001600160e01b03198116811461078d57600080fdfeddf252ad1be2c89b69c2b068fc378daa952ba7f163c4a11628f55a4df523b3efa264697066735822122040c060c416811208ea8e775f35c99cbe24623703f98f6ab3924fe2580f21c67364736f6c63430008000033",
  "immutableReferences": {},
  "source": "pragma solidity >=0.5.16;\n\nimport 'openzeppelin-solidity/contracts/token/ERC721/extensions/ERC721URIStorage.sol'; \nimport 'openzeppelin-solidity/contracts/token/ERC721/extensions/IERC721Metadata.sol';\nimport 'openzeppelin-solidity/contracts/utils/Counters.sol';\nimport 'openzeppelin-solidity/contracts/access/Ownable.sol';\n\n\ncontract BanksyToken is ERC721URIStorage, Ownable{\n  // address public user;   //      .      \n\n  using Counters for Counters.Counter;\n  Counters.Counter private _tokenIds;\n\n  constructor() ERC721(\"Banksy's First NFT Token\", \"NFT\"){ \n  } \n\n  function totalSupply() public view returns (uint256) {\n      return _tokenIds.current();\n  }\n\n  // function mint(address marketplaceUser, string memory tokenURI)\n  function mint(string memory tokenURI)\n      public\n      /// onlyOwner\n      returns (uint256){\n      _tokenIds.increment();\n      uint256 nftId = _tokenIds.current();\n      _mint(msg.sender, nftId);\n      _setTokenURI(nftId, tokenURI);\n      return nftId;\n  }  \n}",
  "sourcePath": "/Users/joon/Workspace/git/nft-marketplace/smartcontract/contracts/BanksyToken.sol",
  "compiler": {
    "name": "solc",
    "version": "0.8.0+commit.c7dfd78e.Emscripten.clang"
  },
  "schemaVersion": "3.4.4",
  "updatedAt": "2022-03-21T08:55:24.405Z",
  "networkType": "ethereum",
  "devdoc": {
    "kind": "dev",
    "methods": {
      "approve(address,uint256)": {
        "details": "See {IERC721-approve}."
      },
      "balanceOf(address)": {
        "details": "See {IERC721-balanceOf}."
      },
      "getApproved(uint256)": {
        "details": "See {IERC721-getApproved}."
      },
      "isApprovedForAll(address,address)": {
        "details": "See {IERC721-isApprovedForAll}."
      },
      "name()": {
        "details": "See {IERC721Metadata-name}."
      },
      "owner()": {
        "details": "Returns the address of the current owner."
      },
      "ownerOf(uint256)": {
        "details": "See {IERC721-ownerOf}."
      },
      "renounceOwnership()": {
        "details": "Leaves the contract without owner. It will not be possible to call `onlyOwner` functions anymore. Can only be called by the current owner. NOTE: Renouncing ownership will leave the contract without an owner, thereby removing any functionality that is only available to the owner."
      },
      "safeTransferFrom(address,address,uint256)": {
        "details": "See {IERC721-safeTransferFrom}."
      },
      "safeTransferFrom(address,address,uint256,bytes)": {
        "details": "See {IERC721-safeTransferFrom}."
      },
      "setApprovalForAll(address,bool)": {
        "details": "See {IERC721-setApprovalForAll}."
      },
      "supportsInterface(bytes4)": {
        "details": "See {IERC165-supportsInterface}."
      },
      "symbol()": {
        "details": "See {IERC721Metadata-symbol}."
      },
      "tokenURI(uint256)": {
        "details": "See {IERC721Metadata-tokenURI}."
      },
      "transferFrom(address,address,uint256)": {
        "details": "See {IERC721-transferFrom}."
      },
      "transferOwnership(address)": {
        "details": "Transfers ownership of the contract to a new account (`newOwner`). Can only be called by the current owner."
      }
    },
    "version": 1
  },
  "userdoc": {
    "kind": "user",
    "methods": {},
    "version": 1
  }
}