{
  "contractName": "MyERC20",
  "abi": [
    {
      "inputs": [],
      "stateMutability": "nonpayable",
      "type": "constructor"
    },
    {
      "anonymous": false,
      "inputs": [
        {
          "indexed": true,
          "internalType": "address",
          "name": "owner",
          "type": "address"
        },
        {
          "indexed": true,
          "internalType": "address",
          "name": "spender",
          "type": "address"
        },
        {
          "indexed": false,
          "internalType": "uint256",
          "name": "value",
          "type": "uint256"
        }
      ],
      "name": "Approval",
      "type": "event"
    },
    {
      "anonymous": false,
      "inputs": [
        {
          "indexed": true,
          "internalType": "address",
          "name": "from",
          "type": "address"
        },
        {
          "indexed": true,
          "internalType": "address",
          "name": "to",
          "type": "address"
        },
        {
          "indexed": false,
          "internalType": "uint256",
          "name": "value",
          "type": "uint256"
        }
      ],
      "name": "Transfer",
      "type": "event"
    },
    {
      "inputs": [],
      "name": "INITIAL_SUPPLY",
      "outputs": [
        {
          "internalType": "uint256",
          "name": "",
          "type": "uint256"
        }
      ],
      "stateMutability": "view",
      "type": "function",
      "constant": true
    },
    {
      "inputs": [
        {
          "internalType": "address",
          "name": "owner",
          "type": "address"
        },
        {
          "internalType": "address",
          "name": "spender",
          "type": "address"
        }
      ],
      "name": "allowance",
      "outputs": [
        {
          "internalType": "uint256",
          "name": "",
          "type": "uint256"
        }
      ],
      "stateMutability": "view",
      "type": "function",
      "constant": true
    },
    {
      "inputs": [
        {
          "internalType": "address",
          "name": "spender",
          "type": "address"
        },
        {
          "internalType": "uint256",
          "name": "amount",
          "type": "uint256"
        }
      ],
      "name": "approve",
      "outputs": [
        {
          "internalType": "bool",
          "name": "",
          "type": "bool"
        }
      ],
      "stateMutability": "nonpayable",
      "type": "function"
    },
    {
      "inputs": [
        {
          "internalType": "address",
          "name": "account",
          "type": "address"
        }
      ],
      "name": "balanceOf",
      "outputs": [
        {
          "internalType": "uint256",
          "name": "",
          "type": "uint256"
        }
      ],
      "stateMutability": "view",
      "type": "function",
      "constant": true
    },
    {
      "inputs": [],
      "name": "decimals",
      "outputs": [
        {
          "internalType": "uint8",
          "name": "",
          "type": "uint8"
        }
      ],
      "stateMutability": "view",
      "type": "function",
      "constant": true
    },
    {
      "inputs": [
        {
          "internalType": "address",
          "name": "spender",
          "type": "address"
        },
        {
          "internalType": "uint256",
          "name": "subtractedValue",
          "type": "uint256"
        }
      ],
      "name": "decreaseAllowance",
      "outputs": [
        {
          "internalType": "bool",
          "name": "",
          "type": "bool"
        }
      ],
      "stateMutability": "nonpayable",
      "type": "function"
    },
    {
      "inputs": [
        {
          "internalType": "address",
          "name": "spender",
          "type": "address"
        },
        {
          "internalType": "uint256",
          "name": "addedValue",
          "type": "uint256"
        }
      ],
      "name": "increaseAllowance",
      "outputs": [
        {
          "internalType": "bool",
          "name": "",
          "type": "bool"
        }
      ],
      "stateMutability": "nonpayable",
      "type": "function"
    },
    {
      "inputs": [],
      "name": "name",
      "outputs": [
        {
          "internalType": "string",
          "name": "",
          "type": "string"
        }
      ],
      "stateMutability": "view",
      "type": "function",
      "constant": true
    },
    {
      "inputs": [],
      "name": "symbol",
      "outputs": [
        {
          "internalType": "string",
          "name": "",
          "type": "string"
        }
      ],
      "stateMutability": "view",
      "type": "function",
      "constant": true
    },
    {
      "inputs": [],
      "name": "totalSupply",
      "outputs": [
        {
          "internalType": "uint256",
          "name": "",
          "type": "uint256"
        }
      ],
      "stateMutability": "view",
      "type": "function",
      "constant": true
    },
    {
      "inputs": [
        {
          "internalType": "address",
          "name": "recipient",
          "type": "address"
        },
        {
          "internalType": "uint256",
          "name": "amount",
          "type": "uint256"
        }
      ],
      "name": "transfer",
      "outputs": [
        {
          "internalType": "bool",
          "name": "",
          "type": "bool"
        }
      ],
      "stateMutability": "nonpayable",
      "type": "function"
    },
    {
      "inputs": [
        {
          "internalType": "address",
          "name": "sender",
          "type": "address"
        },
        {
          "internalType": "address",
          "name": "recipient",
          "type": "address"
        },
        {
          "internalType": "uint256",
          "name": "amount",
          "type": "uint256"
        }
      ],
      "name": "transferFrom",
      "outputs": [
        {
          "internalType": "bool",
          "name": "",
          "type": "bool"
        }
      ],
      "stateMutability": "nonpayable",
      "type": "function"
    },
    {
      "inputs": [],
      "name": "user",
      "outputs": [
        {
          "internalType": "address",
          "name": "",
          "type": "address"
        }
      ],
      "stateMutability": "view",
      "type": "function",
      "constant": true
    }
  ],
  "bytecode": "0x6080604052650ae9f7bcc0006006553480156200001b57600080fd5b50604080518082018252601e81527f53696d706c65204d61726b6574706c61636520455243323020546f6b656e00006020808301918252835180850190945260058452644d6f6e657960d81b9084015281519192916200007e91600391620001b3565b50805162000094906004906020840190620001b3565b5050600580546001600160a01b031916331790819055600654620000c692506001600160a01b039190911690620000cc565b620002fb565b6001600160a01b038216620000fe5760405162461bcd60e51b8152600401620000f59062000259565b60405180910390fd5b6200010c60008383620001ae565b806002600082825462000120919062000299565b90915550506001600160a01b038216600090815260208190526040812080548392906200014f90849062000299565b90915550506040516001600160a01b038316906000907fddf252ad1be2c89b69c2b068fc378daa952ba7f163c4a11628f55a4df523b3ef906200019490859062000290565b60405180910390a3620001aa60008383620001ae565b5050565b505050565b828054620001c190620002be565b90600052602060002090601f016020900481019282620001e5576000855562000230565b82601f106200020057805160ff191683800117855562000230565b8280016001018555821562000230579182015b828111156200023057825182559160200191906001019062000213565b506200023e92915062000242565b5090565b5b808211156200023e576000815560010162000243565b6020808252601f908201527f45524332303a206d696e7420746f20746865207a65726f206164647265737300604082015260600190565b90815260200190565b60008219821115620002b957634e487b7160e01b81526011600452602481fd5b500190565b600281046001821680620002d357607f821691505b60208210811415620002f557634e487b7160e01b600052602260045260246000fd5b50919050565b610a09806200030b6000396000f3fe608060405234801561001057600080fd5b50600436106100af5760003560e01c806306fdde03146100b4578063095ea7b3146100d257806318160ddd146100f257806323b872dd146101075780632ff2e9dc1461011a578063313ce5671461012257806339509351146101375780634f8632ba1461014a57806370a082311461015f57806395d89b4114610172578063a457c2d71461017a578063a9059cbb1461018d578063dd62ed3e146101a0575b600080fd5b6100bc6101b3565b6040516100c99190610729565b60405180910390f35b6100e56100e03660046106e1565b610245565b6040516100c9919061071e565b6100fa610262565b6040516100c9919061095d565b6100e56101153660046106a6565b610268565b6100fa610301565b61012a610307565b6040516100c99190610966565b6100e56101453660046106e1565b61030c565b610152610360565b6040516100c9919061070a565b6100fa61016d366004610653565b61036f565b6100bc61038e565b6100e56101883660046106e1565b61039d565b6100e561019b3660046106e1565b610416565b6100fa6101ae366004610674565b61042a565b6060600380546101c290610998565b80601f01602080910402602001604051908101604052809291908181526020018280546101ee90610998565b801561023b5780601f106102105761010080835404028352916020019161023b565b820191906000526020600020905b81548152906001019060200180831161021e57829003601f168201915b5050505050905090565b6000610259610252610455565b8484610459565b50600192915050565b60025490565b600061027584848461050d565b6001600160a01b038416600090815260016020526040812081610296610455565b6001600160a01b03166001600160a01b03168152602001908152602001600020549050828110156102e25760405162461bcd60e51b81526004016102d990610847565b60405180910390fd5b6102f6856102ee610455565b858403610459565b506001949350505050565b60065481565b601290565b6000610259610319610455565b848460016000610327610455565b6001600160a01b03908116825260208083019390935260409182016000908120918b168152925290205461035b9190610974565b610459565b6005546001600160a01b031681565b6001600160a01b0381166000908152602081905260409020545b919050565b6060600480546101c290610998565b600080600160006103ac610455565b6001600160a01b03908116825260208083019390935260409182016000908120918816815292529020549050828110156103f85760405162461bcd60e51b81526004016102d990610918565b61040c610403610455565b85858403610459565b5060019392505050565b6000610259610423610455565b848461050d565b6001600160a01b03918216600090815260016020908152604080832093909416825291909152205490565b3390565b6001600160a01b03831661047f5760405162461bcd60e51b81526004016102d9906108d4565b6001600160a01b0382166104a55760405162461bcd60e51b81526004016102d9906107bf565b6001600160a01b0380841660008181526001602090815260408083209487168084529490915290819020849055517f8c5be1e5ebec7d5bd14f71427d1e84f3dd0314c0f7b2291e5b200ac8c7c3b9259061050090859061095d565b60405180910390a3505050565b6001600160a01b0383166105335760405162461bcd60e51b81526004016102d99061088f565b6001600160a01b0382166105595760405162461bcd60e51b81526004016102d99061077c565b610564838383610637565b6001600160a01b0383166000908152602081905260409020548181101561059d5760405162461bcd60e51b81526004016102d990610801565b6001600160a01b038085166000908152602081905260408082208585039055918516815290812080548492906105d4908490610974565b92505081905550826001600160a01b0316846001600160a01b03167fddf252ad1be2c89b69c2b068fc378daa952ba7f163c4a11628f55a4df523b3ef8460405161061e919061095d565b60405180910390a3610631848484610637565b50505050565b505050565b80356001600160a01b038116811461038957600080fd5b600060208284031215610664578081fd5b61066d8261063c565b9392505050565b60008060408385031215610686578081fd5b61068f8361063c565b915061069d6020840161063c565b90509250929050565b6000806000606084860312156106ba578081fd5b6106c38461063c565b92506106d16020850161063c565b9150604084013590509250925092565b600080604083850312156106f3578182fd5b6106fc8361063c565b946020939093013593505050565b6001600160a01b0391909116815260200190565b901515815260200190565b6000602080835283518082850152825b8181101561075557858101830151858201604001528201610739565b818111156107665783604083870101525b50601f01601f1916929092016040019392505050565b60208082526023908201527f45524332303a207472616e7366657220746f20746865207a65726f206164647260408201526265737360e81b606082015260800190565b60208082526022908201527f45524332303a20617070726f766520746f20746865207a65726f206164647265604082015261737360f01b606082015260800190565b60208082526026908201527f45524332303a207472616e7366657220616d6f756e7420657863656564732062604082015265616c616e636560d01b606082015260800190565b60208082526028908201527f45524332303a207472616e7366657220616d6f756e74206578636565647320616040820152676c6c6f77616e636560c01b606082015260800190565b60208082526025908201527f45524332303a207472616e736665722066726f6d20746865207a65726f206164604082015264647265737360d81b606082015260800190565b60208082526024908201527f45524332303a20617070726f76652066726f6d20746865207a65726f206164646040820152637265737360e01b606082015260800190565b60208082526025908201527f45524332303a2064656372656173656420616c6c6f77616e63652062656c6f77604082015264207a65726f60d81b606082015260800190565b90815260200190565b60ff91909116815260200190565b6000821982111561099357634e487b7160e01b81526011600452602481fd5b500190565b6002810460018216806109ac57607f821691505b602082108114156109cd57634e487b7160e01b600052602260045260246000fd5b5091905056fea264697066735822122026b09a008e60bb5f2c9903904c6910663fba5686cafc63f4d3b26dfb5ba279fd64736f6c63430008000033",
  "immutableReferences": {},
  "source": "pragma solidity >=0.5.16;\n\nimport 'openzeppelin-solidity/contracts/token/ERC20/ERC20.sol'; \n\n\ncontract MyERC20 is ERC20{ \n    address public user;   //      .      \n\n    uint public INITIAL_SUPPLY = 12000000000000; \n    constructor() ERC20(\"Simple Marketplace ERC20 Token\", \"Money\"){ \n        user = msg.sender;\n        _mint(user, INITIAL_SUPPLY);       \n    } \n}\n\n",
  "sourcePath": "/Users/joon/Workspace/git/nft-marketplace/smartcontract/contracts/MyERC20.sol",
  "compiler": {
    "name": "solc",
    "version": "0.8.0+commit.c7dfd78e.Emscripten.clang"
  },
  "schemaVersion": "3.4.3",
  "updatedAt": "2021-12-01T08:47:09.673Z",
  "networkType": "ethereum",
  "devdoc": {
    "kind": "dev",
    "methods": {
      "allowance(address,address)": {
        "details": "See {IERC20-allowance}."
      },
      "approve(address,uint256)": {
        "details": "See {IERC20-approve}. Requirements: - `spender` cannot be the zero address."
      },
      "balanceOf(address)": {
        "details": "See {IERC20-balanceOf}."
      },
      "decimals()": {
        "details": "Returns the number of decimals used to get its user representation. For example, if `decimals` equals `2`, a balance of `505` tokens should be displayed to a user as `5.05` (`505 / 10 ** 2`). Tokens usually opt for a value of 18, imitating the relationship between Ether and Wei. This is the value {ERC20} uses, unless this function is overridden; NOTE: This information is only used for _display_ purposes: it in no way affects any of the arithmetic of the contract, including {IERC20-balanceOf} and {IERC20-transfer}."
      },
      "decreaseAllowance(address,uint256)": {
        "details": "Atomically decreases the allowance granted to `spender` by the caller. This is an alternative to {approve} that can be used as a mitigation for problems described in {IERC20-approve}. Emits an {Approval} event indicating the updated allowance. Requirements: - `spender` cannot be the zero address. - `spender` must have allowance for the caller of at least `subtractedValue`."
      },
      "increaseAllowance(address,uint256)": {
        "details": "Atomically increases the allowance granted to `spender` by the caller. This is an alternative to {approve} that can be used as a mitigation for problems described in {IERC20-approve}. Emits an {Approval} event indicating the updated allowance. Requirements: - `spender` cannot be the zero address."
      },
      "name()": {
        "details": "Returns the name of the token."
      },
      "symbol()": {
        "details": "Returns the symbol of the token, usually a shorter version of the name."
      },
      "totalSupply()": {
        "details": "See {IERC20-totalSupply}."
      },
      "transfer(address,uint256)": {
        "details": "See {IERC20-transfer}. Requirements: - `recipient` cannot be the zero address. - the caller must have a balance of at least `amount`."
      },
      "transferFrom(address,address,uint256)": {
        "details": "See {IERC20-transferFrom}. Emits an {Approval} event indicating the updated allowance. This is not required by the EIP. See the note at the beginning of {ERC20}. Requirements: - `sender` and `recipient` cannot be the zero address. - `sender` must have a balance of at least `amount`. - the caller must have allowance for ``sender``'s tokens of at least `amount`."
      }
    },
    "version": 1
  },
  "userdoc": {
    "kind": "user",
    "methods": {},
    "version": 1
  }
}