{
  "contractName": "PurchaseVoucher",
  "abi": [
    {
      "inputs": [],
      "stateMutability": "nonpayable",
      "type": "constructor"
    },
    {
      "inputs": [
        {
          "internalType": "address",
          "name": "admin",
          "type": "address"
        },
        {
          "internalType": "address",
          "name": "moneyToken",
          "type": "address"
        },
        {
          "internalType": "address",
          "name": "voucherToken",
          "type": "address"
        },
        {
          "internalType": "uint256",
          "name": "voucherTokenId",
          "type": "uint256"
        },
        {
          "internalType": "uint256",
          "name": "price",
          "type": "uint256"
        }
      ],
      "name": "purchaseVoucherToken",
      "outputs": [],
      "stateMutability": "nonpayable",
      "type": "function"
    }
  ],
  "bytecode": "0x608060405234801561001057600080fd5b506106e0806100206000396000f3fe608060405234801561001057600080fd5b506004361061002b5760003560e01c8063aa95d7c014610030575b600080fd5b61004361003e36600461044c565b610045565b005b6000606461005483600a61061e565b61005e91906105fe565b9050600080866001600160a01b031660008051602061068b833981519152338a8660405160240161009193929190610500565b60408051601f198184030181529181526020820180516001600160e01b03166001600160e01b03199094169390931790925290516100cf91906104c7565b6000604051808303816000865af19150503d806000811461010c576040519150601f19603f3d011682016040523d82523d6000602084013e610111565b606091505b509150915081801561013b57508051158061013b57508080602001905181019061013b91906104a0565b6101605760405162461bcd60e51b815260040161015790610569565b60405180910390fd5b600080876001600160a01b03168760405160240161017e91906105f5565b60408051601f198184030181529181526020820180516001600160e01b031663fd268b4560e01b179052516101b391906104c7565b600060405180830381855afa9150503d80600081146101ee576040519150601f19603f3d011682016040523d82523d6000602084013e6101f3565b606091505b50915091508161020257600080fd5b600061020d82610429565b90506000806001600160a01b038c1660008051602061068b83398151915233856102378c8e61063d565b60405160240161024993929190610500565b60408051601f198184030181529181526020820180516001600160e01b03166001600160e01b031990941693909317909252905161028791906104c7565b6000604051808303816000865af19150503d80600081146102c4576040519150601f19603f3d011682016040523d82523d6000602084013e6102c9565b606091505b50915091508180156102f35750805115806102f35750808060200190518101906102f391906104a0565b61030f5760405162461bcd60e51b8152600401610157906105ab565b6000808c6001600160a01b03167f640441567a63f93bb708d33df4fb558ccf2ec59f306cc74b9bed436c9354d20386338f60405160240161035293929190610500565b60408051601f198184030181529181526020820180516001600160e01b03166001600160e01b031990941693909317909252905161039091906104c7565b6000604051808303816000865af19150503d80600081146103cd576040519150601f19603f3d011682016040523d82523d6000602084013e6103d2565b606091505b50915091508180156103fc5750805115806103fc5750808060200190518101906103fc91906104a0565b6104185760405162461bcd60e51b815260040161015790610524565b505050505050505050505050505050565b6020015190565b80356001600160a01b038116811461044757600080fd5b919050565b600080600080600060a08688031215610463578081fd5b61046c86610430565b945061047a60208701610430565b935061048860408701610430565b94979396509394606081013594506080013592915050565b6000602082840312156104b1578081fd5b815180151581146104c0578182fd5b9392505050565b60008251815b818110156104e757602081860181015185830152016104cd565b818111156104f55782828501525b509190910192915050565b6001600160a01b039384168152919092166020820152604081019190915260600190565b602080825260379082015260008051602061066b833981519152604082015276494c45442842555920564f554348455220544f4b454e2960481b606082015260800190565b602080825260349082015260008051602061066b833981519152604082015273494c4544284d4f4e455920544f2041444d494e2960601b606082015260800190565b6020808252603c9082015260008051602061066b83398151915260408201527b494c4544284d4f4e455920544f20415254574f524b204f574e45522960201b606082015260800190565b90815260200190565b60008261061957634e487b7160e01b81526012600452602481fd5b500490565b600081600019048311821515161561063857610638610654565b500290565b60008282101561064f5761064f610654565b500390565b634e487b7160e01b600052601160045260246000fdfe5472616e7366657248656c7065723a205452414e534645525f46524f4d5f464123b872dd7302113369cda2901243429419bec145408fa8b352b3dd92b66c680ba264697066735822122014a818e91c40a2459a651d5d5ef23d18ea8652e1fd180bac5bfdcfc028b0dad764736f6c63430008000033",
  "immutableReferences": {},
  "source": "pragma solidity >=0.5.16;\n\nimport \"openzeppelin-solidity/contracts/token/ERC721/extensions/ERC721URIStorage.sol\";\nimport \"openzeppelin-solidity/contracts/token/ERC721/extensions/IERC721Metadata.sol\";\nimport \"openzeppelin-solidity/contracts/utils/Counters.sol\";\nimport \"openzeppelin-solidity/contracts/access/Ownable.sol\";\n\ncontract PurchaseVoucher {\n    // uint256 private constant COPYRIGHT_FEE_RATE = 5;\n\n    //   TrasnferFrom \n    bytes4 private constant TRANSFER_FROM_FUNC =\n        bytes4(keccak256(\"transferFrom(address,address,uint256)\"));\n\n    //   purchase \n    bytes4 private constant PURCHASE_FUNC =\n        bytes4(keccak256(\"purchase(address,address,uint256)\"));\n\n    // Marketplace  \n    // address public ADMIN_ADDRESS = 0xfe3b557e8fb62b89f4916b721be55ceb828dbd73;\n\n    constructor() {}\n\n    /*\n     * MoneyToken VoucherToken \n     * 10% = (marketplace)\n     * 90% = \n     */\n    function purchaseVoucherToken(address admin, address moneyToken, address voucherToken, uint256 voucherTokenId, uint256 price) public {\n        \n        uint256 feePrice = price * 10 / 100;\n        /* \n         * 10%   (buyer -> admin)\n         */\n        (\n            bool successPayMoneyToAdmin,\n            bytes memory dataPayMoneyToAdmin\n        ) = moneyToken.call(\n                abi.encodeWithSelector(\n                    TRANSFER_FROM_FUNC,\n                    msg.sender,\n                    admin,\n                    feePrice\n                )\n            );\n        require(\n            successPayMoneyToAdmin &&\n                (dataPayMoneyToAdmin.length == 0 ||\n                    abi.decode(dataPayMoneyToAdmin, (bool))),\n            \"TransferHelper: TRANSFER_FROM_FAILED(MONEY TO ADMIN)\"\n        );\n\n        /*\n         *    price  (buyer -> seller)\n         */\n        (\n            bool isOwnerOfToken, \n            bytes memory dataOwnerOfToken\n        ) = voucherToken.staticcall(\n                abi.encodeWithSignature(\n                    \"getVoucherTokenOwner(uint256)\", \n                    voucherTokenId)\n            );\n        if (!isOwnerOfToken) {\n            revert();\n        }\n        address voucherTokenOwner = bytesToAddress(dataOwnerOfToken);\n\n        (\n            bool successPayMoneyToOwner,\n            bytes memory dataToPayMoneyToOwner\n        ) = moneyToken.call(\n                abi.encodeWithSelector(\n                    TRANSFER_FROM_FUNC,\n                    msg.sender,\n                    voucherTokenOwner,\n                    price - feePrice\n                )\n            );\n        require(\n            successPayMoneyToOwner &&\n                (dataToPayMoneyToOwner.length == 0 ||\n                    abi.decode(dataToPayMoneyToOwner, (bool))),\n            \"TransferHelper: TRANSFER_FROM_FAILED(MONEY TO ARTWORK OWNER)\"\n        );\n        \n        // VoucherToken \n        (\n            bool successToBuyVoucherToken, \n            bytes memory dataToBuyVoucherToken\n        ) = voucherToken.call(\n                abi.encodeWithSelector(\n                    // TRANSFER_FROM_FUNC,\n                    PURCHASE_FUNC,\n                    voucherTokenOwner,\n                    msg.sender,\n                    voucherTokenId\n                )\n            );\n        require(\n            successToBuyVoucherToken &&\n                (dataToBuyVoucherToken.length == 0 ||\n                    abi.decode(dataToBuyVoucherToken, (bool))),\n            \"TransferHelper: TRANSFER_FROM_FAILED(BUY VOUCHER TOKEN)\"\n        );        \n    }\n\n    function bytesToAddress(bytes memory bys)\n        private\n        pure\n        returns (address addr)\n    {\n        assembly {\n            addr := mload(add(bys, 32))\n        }\n    }\n}\n",
  "sourcePath": "/Users/joon/Workspace/git/nft-marketplace/smartcontract/contracts/PurchaseVoucher.sol",
  "compiler": {
    "name": "solc",
    "version": "0.8.0+commit.c7dfd78e.Emscripten.clang"
  },
  "schemaVersion": "3.4.4",
  "updatedAt": "2022-03-21T08:55:24.443Z",
  "networkType": "ethereum",
  "devdoc": {
    "kind": "dev",
    "methods": {},
    "version": 1
  },
  "userdoc": {
    "kind": "user",
    "methods": {},
    "version": 1
  }
}