{
  "contractName": "PurchaseVoucher",
  "abi": [
    {
      "inputs": [],
      "stateMutability": "nonpayable",
      "type": "constructor"
    },
    {
      "inputs": [
        {
          "internalType": "address",
          "name": "admin",
          "type": "address"
        },
        {
          "internalType": "address",
          "name": "moneyToken",
          "type": "address"
        },
        {
          "internalType": "address",
          "name": "voucherToken",
          "type": "address"
        },
        {
          "internalType": "uint256",
          "name": "voucherTokenId",
          "type": "uint256"
        },
        {
          "internalType": "uint256",
          "name": "price",
          "type": "uint256"
        }
      ],
      "name": "purchaseVoucherToken",
      "outputs": [],
      "stateMutability": "nonpayable",
      "type": "function"
    }
  ],
  "bytecode": "0x608060405234801561001057600080fd5b50610682806100206000396000f3fe608060405234801561001057600080fd5b506004361061002b5760003560e01c8063aa95d7c014610030575b600080fd5b61004361003e366004610437565b610045565b005b600060649050600080866001600160a01b031660008051602061062d833981519152338a8660405160240161007c939291906104eb565b60408051601f198184030181529181526020820180516001600160e01b03166001600160e01b03199094169390931790925290516100ba91906104b2565b6000604051808303816000865af19150503d80600081146100f7576040519150601f19603f3d011682016040523d82523d6000602084013e6100fc565b606091505b5091509150818015610126575080511580610126575080806020019051810190610126919061048b565b61014b5760405162461bcd60e51b815260040161014290610554565b60405180910390fd5b600080876001600160a01b03168760405160240161016991906105e0565b60408051601f198184030181529181526020820180516001600160e01b031663fd268b4560e01b1790525161019e91906104b2565b600060405180830381855afa9150503d80600081146101d9576040519150601f19603f3d011682016040523d82523d6000602084013e6101de565b606091505b5091509150816101ed57600080fd5b60006101f882610414565b90506000806001600160a01b038c1660008051602061062d83398151915233856102228c8e6105e9565b604051602401610234939291906104eb565b60408051601f198184030181529181526020820180516001600160e01b03166001600160e01b031990941693909317909252905161027291906104b2565b6000604051808303816000865af19150503d80600081146102af576040519150601f19603f3d011682016040523d82523d6000602084013e6102b4565b606091505b50915091508180156102de5750805115806102de5750808060200190518101906102de919061048b565b6102fa5760405162461bcd60e51b815260040161014290610596565b6000808c6001600160a01b03167f640441567a63f93bb708d33df4fb558ccf2ec59f306cc74b9bed436c9354d20386338f60405160240161033d939291906104eb565b60408051601f198184030181529181526020820180516001600160e01b03166001600160e01b031990941693909317909252905161037b91906104b2565b6000604051808303816000865af19150503d80600081146103b8576040519150601f19603f3d011682016040523d82523d6000602084013e6103bd565b606091505b50915091508180156103e75750805115806103e75750808060200190518101906103e7919061048b565b6104035760405162461bcd60e51b81526004016101429061050f565b505050505050505050505050505050565b6020015190565b80356001600160a01b038116811461043257600080fd5b919050565b600080600080600060a0868803121561044e578081fd5b6104578661041b565b94506104656020870161041b565b93506104736040870161041b565b94979396509394606081013594506080013592915050565b60006020828403121561049c578081fd5b815180151581146104ab578182fd5b9392505050565b60008251815b818110156104d257602081860181015185830152016104b8565b818111156104e05782828501525b509190910192915050565b6001600160a01b039384168152919092166020820152604081019190915260600190565b602080825260379082015260008051602061060d833981519152604082015276494c45442842555920564f554348455220544f4b454e2960481b606082015260800190565b602080825260349082015260008051602061060d833981519152604082015273494c4544284d4f4e455920544f2041444d494e2960601b606082015260800190565b6020808252603c9082015260008051602061060d83398151915260408201527b494c4544284d4f4e455920544f20415254574f524b204f574e45522960201b606082015260800190565b90815260200190565b60008282101561060757634e487b7160e01b81526011600452602481fd5b50039056fe5472616e7366657248656c7065723a205452414e534645525f46524f4d5f464123b872dd7302113369cda2901243429419bec145408fa8b352b3dd92b66c680ba2646970667358221220bf643a95951dee82e812ba0c8b939bf4e0e88759675400d59c61e8c7bb3f1da964736f6c63430008000033",
  "immutableReferences": {},
  "source": "pragma solidity >=0.5.16;\n\nimport \"openzeppelin-solidity/contracts/token/ERC721/extensions/ERC721URIStorage.sol\";\nimport \"openzeppelin-solidity/contracts/token/ERC721/extensions/IERC721Metadata.sol\";\nimport \"openzeppelin-solidity/contracts/utils/Counters.sol\";\nimport \"openzeppelin-solidity/contracts/access/Ownable.sol\";\n\ncontract PurchaseVoucher {\n    // uint256 private constant COPYRIGHT_FEE_RATE = 5;\n\n    //   TrasnferFrom \n    bytes4 private constant TRANSFER_FROM_FUNC =\n        bytes4(keccak256(\"transferFrom(address,address,uint256)\"));\n\n    //   purchase \n    bytes4 private constant PURCHASE_FUNC =\n        bytes4(keccak256(\"purchase(address,address,uint256)\"));\n\n    // Marketplace  \n    // address public ADMIN_ADDRESS = 0xfe3b557e8fb62b89f4916b721be55ceb828dbd73;\n\n    constructor() {}\n\n    /*\n     * MoneyToken VoucherToken \n     * 10% = (marketplace)\n     * 90% = \n     */\n    function purchaseVoucherToken(address admin, address moneyToken, address voucherToken, uint256 voucherTokenId, uint256 price) public {\n        \n        uint256 feePrice = 100;\n        /* \n         * 10%   (buyer -> admin)\n         */\n        (\n            bool successPayMoneyToAdmin,\n            bytes memory dataPayMoneyToAdmin\n        ) = moneyToken.call(\n                abi.encodeWithSelector(\n                    TRANSFER_FROM_FUNC,\n                    msg.sender,\n                    admin,\n                    feePrice\n                )\n            );\n        require(\n            successPayMoneyToAdmin &&\n                (dataPayMoneyToAdmin.length == 0 ||\n                    abi.decode(dataPayMoneyToAdmin, (bool))),\n            \"TransferHelper: TRANSFER_FROM_FAILED(MONEY TO ADMIN)\"\n        );\n\n        /*\n         *    price  (buyer -> seller)\n         */\n        (\n            bool isOwnerOfToken, \n            bytes memory dataOwnerOfToken\n        ) = voucherToken.staticcall(\n                abi.encodeWithSignature(\n                    \"getVoucherTokenOwner(uint256)\", \n                    voucherTokenId)\n            );\n        if (!isOwnerOfToken) {\n            revert();\n        }\n        address voucherTokenOwner = bytesToAddress(dataOwnerOfToken);\n\n        (\n            bool successPayMoneyToOwner,\n            bytes memory dataToPayMoneyToOwner\n        ) = moneyToken.call(\n                abi.encodeWithSelector(\n                    TRANSFER_FROM_FUNC,\n                    msg.sender,\n                    voucherTokenOwner,\n                    price - feePrice\n                )\n            );\n        require(\n            successPayMoneyToOwner &&\n                (dataToPayMoneyToOwner.length == 0 ||\n                    abi.decode(dataToPayMoneyToOwner, (bool))),\n            \"TransferHelper: TRANSFER_FROM_FAILED(MONEY TO ARTWORK OWNER)\"\n        );\n        \n        // VoucherToken \n        (\n            bool successToBuyVoucherToken, \n            bytes memory dataToBuyVoucherToken\n        ) = voucherToken.call(\n                abi.encodeWithSelector(\n                    // TRANSFER_FROM_FUNC,\n                    PURCHASE_FUNC,\n                    voucherTokenOwner,\n                    msg.sender,\n                    voucherTokenId\n                )\n            );\n        require(\n            successToBuyVoucherToken &&\n                (dataToBuyVoucherToken.length == 0 ||\n                    abi.decode(dataToBuyVoucherToken, (bool))),\n            \"TransferHelper: TRANSFER_FROM_FAILED(BUY VOUCHER TOKEN)\"\n        );        \n    }\n\n    function bytesToAddress(bytes memory bys)\n        private\n        pure\n        returns (address addr)\n    {\n        assembly {\n            addr := mload(add(bys, 32))\n        }\n    }\n}\n",
  "sourcePath": "/Users/joon/Workspace/git/nft-marketplace/smartcontract/contracts/PurchaseVoucher.sol",
  "compiler": {
    "name": "solc",
    "version": "0.8.0+commit.c7dfd78e.Emscripten.clang"
  },
  "schemaVersion": "3.4.4",
  "updatedAt": "2022-03-22T07:22:14.806Z",
  "networkType": "ethereum",
  "devdoc": {
    "kind": "dev",
    "methods": {},
    "version": 1
  },
  "userdoc": {
    "kind": "user",
    "methods": {},
    "version": 1
  }
}